:020000040800F2
:100000005007002069020008511D0008491D000822
:100010004D1D0008750600080120000800000000C2
:10002000000000000000000000000000591D000852
:100030007906000800000000551D00085D1D00083D
:10004000830200088302000883020008830200087C
:10005000830200088302000883020008830200086C
:10006000830200088302000883020008830200085C
:10007000830200088302000883020008830200084C
:1000800083020008830200088302000800000000C9
:1000900000000000000000000000000083020008D3
:1000A000830200088302000883020008830200081C
:1000B000830200088302000883020008830200080C
:1000C00083020008830200088302000883020008FC
:1000D0008302000883020008830200080000000079
:1000E0008302000883020008830200080000000069
:1000F0000000000000000000000000008302000873
:100100000000000083020008830200088302000848
:1001100000000000000000000000000000000000DF
:10012000830200088302000883020008830200089B
:100130008302000800000000000000000000000032
:100140000000000000000000000000008302000822
:10015000830200088302000883020008830200086B
:100160008302000883020008000000000000000075
:10017000000000000000000000000000000000007F
:1001800000000000830200080000000000000000E2
:100190008302000800F002F800F057F814A696E871
:1001A000000CB244B344DA4501D100F04EF8BAE88D
:1001B0000F000FA696E83000A5EB040504EB060738
:1001C000AAEB0704A7F101074FEA15154FEA34140B
:1001D000A4F10104AC4201D300F037F813F0010F91
:1001E00018BFFB1A43F0010300F001F8DBE71847E2
:1001F0007422000094220000103A24BF78C878C10D
:10020000FAD8520724BF30C830C144BF04680C601C
:1002100070470000704700000023002400250026DE
:10022000103A28BF78C1FBD8520728BF30C148BF59
:100230000B607047752900F0CF80002070471FB514
:1002400002F0F4F81FBD10B510BD00F0D9F9114649
:10025000FFF7F5FF01F0D6FE00F0F7F903B4FFF762
:10026000F2FF03BC00F0FEF9094880470948004747
:10027000FEE7FEE7FEE7FEE7FEE7FEE7FEE7FEE756
:10028000FEE7FEE704480549054A064B70470000B3
:10029000051E0008950100085001002050070020AD
:1002A000500300205003002053EA020C00F0698044
:1002B0002DE9F04B4FF00006002B1FBFB3FA83F57A
:1002C00003FA05F424FA05F65E4012BF1643B2FAAB
:1002D00082F502FA05F4C5F120051EBF22FA05FCDD
:1002E00044EA0C04203556EA044C4FEA144418BF83
:1002F000641C4FF000084FF00009904271EB030CB2
:1003000039D3002919BFB1FA81F701FA07F6B0FA1B
:1003100080F700FA07F6C7F120071EBF20FA07FC96
:1003200046EA0C062037B6FBF4FCA7EB0507103FA6
:1003300007F01F0BCBF120062CFA06F60CFA0BFB8C
:1003400044BFB3460026202FA4BF5E464FF0000BEB
:100350005BEA060C08BF4FF0010B19EB0B0948EBE9
:100360000608ABFB027C06FB02CC0BFB03CCC01BDC
:1003700071EB0C01C1E70B46024641464846BDE819
:10038000F08B13B5084318BF4FF0FF300146AFF3B1
:100390000080BDE81C4070470FB41CB50C0007AAD4
:1003A000009007D04142A14202D32044401E01E008
:1003B0004FF0FF30074B7B4469460190069800F0F0
:1003C00004F90021002C01D0009A11701CBC5DF8CA
:1003D00014FB0000370200002DE9F041064600241E
:1003E00010687529314616A510D0AFF3008000289B
:1003F00002DA404213A507E031688A0701D512A549
:1004000002E0490704D511A5012401E0AFF3008003
:1004100000210A2206F1240709E0B0FBF2FCB0FB40
:10042000F2F302FB1C00303078541846491C0028B7
:10043000F3D123462A463046BDE8F04100F067B8C4
:10044000000000002D0000002B0000002000000034
:100450002DE9F0410F460546002028622846E9684C
:10046000884770B3252805D0D5E901219047286A2F
:10047000401CF2E7E9682846002688476C280446B5
:100480000AD0682C08D04C2C35D06A2C31D0742C72
:1004900031D07A2C2FD016E0E968064628468847E6
:1004A000B042044608D16C2E23D04FF48066284613
:1004B000E9688847044606E06C2E03D04FF4807646
:1004C00001E01EE04026E4B1A4F14100192802D861
:1004D000203446F400663A46214628462E60FFF74F
:1004E000A9FE60B1012808D0FF1D27F007070837D3
:1004F000B4E78026DBE70026D9E73F1DAEE72046BC
:10050000B2E7286ABDE8F0817047704770472DE96F
:10051000F0470D4699469246044600F124080168CA
:10052000880604D5E06921F01001216000E0012077
:10053000A84201DD471B00E00027A1697A1902EB00
:100540000900081AA0612078C00602D42046AFF343
:100550000080002608E0D4E901211AF8060090473F
:10056000206A401C761C20624E45F4DB2078C006D1
:100570000AD52046AFF3008006E0D4E901213020FF
:100580009047206A401C2062381EA7F10107F4DC66
:1005900007E0D4E9012118F805009047206A401CC3
:1005A0002062281EA5F10105F3DC2046AFF3008090
:1005B0002078000602D50220BDE8F0870120FBE785
:1005C00001694A1C02610878704700B58FB0CDE917
:1005D00001310021059105497944CDE90310114607
:1005E0006846FFF735FF0FB000BD0000E5FFFFFFD5
:1005F000D1E900239A4202D2531C0B60107070475D
:10060000754600F02BF8AE4605006946534620F0CB
:100610000700854618B020B5FFF734FEBDE820403E
:100620004FF000064FF000074FF000084FF0000BAE
:10063000AC46ACE8C009ACE8C009ACE8C009ACE81D
:10064000C00921F007018D46704710B50446AFF38D
:1006500000802046BDE81040FFF700BE004870470C
:100660001000002001491820ABBEFEE72600020062
:1006700070470000FEE700007047000070B581B0D1
:100680000022009290F83C20012A03D10221084662
:1006900001B070BD0E6801220A2E80F83C2009D3FB
:1006A000B2B25200D0F800E012FA86F21E3A0EF111
:1006B0000C0305E0D0F800E006EB46020EF1100353
:1006C0004FF0070C1D680CFA02F4A5431D608D68FD
:1006D0001C6805FA02F222431A60496806290FD8FD
:1006E00001EB81014A1F71461F2351F8345F93408B
:1006F00025EA03030B60B3B203FA02F214E000BF71
:1007000001EB81030C29B2B204D8714651F8304F85
:10071000233B03E0714651F82C4F413B1F259D4080
:1007200024EA05059A400D600B6842F2043CC4F2CD
:10073000010C1A43ACF541739E450A603BD1122E61
:1007400006D1DCF8001041F48001CCF8001032E052
:1007500026F0010110292ED1DCF80010102E41F4F2
:100760000001CCF8001026D140F20801C2F20001CD
:1007700009684DF68362C4F21B32A1FB0212910C90
:1007800001EB8101490000910099A1B10099013963
:100790000091009979B1009901390091009951B106
:1007A000009901390091009929B10099013900910E
:1007B00000990029EAD1002180F83C10084601B0D8
:1007C00070BD0000002804BF0120704710B504462A
:1007D000006C00283ED0206CC00645D4206C41F24D
:1007E00002118843023042F204312064C4F2010154
:1007F000086820F4403008600A6894E809101A4339
:10080000D4F810E00A604168012321F4807141604E
:100810004168C0F6007341EA0E214160416821F051
:1008200040714160416841EA0C014160816821F4F6
:1008300000618160E168826811438160A16A826819
:10084000994222F070628260826813D122F0405196
:1008500019E000BF204600F065F80020606484F8CD
:100860003C00206CC006B9D50120002184F83C1062
:1008700010BD00BF11438160816821F0405181604B
:10088000E16A826811438160816821F00201816020
:100890008168227E94F8203041EA420181604168FB
:1008A00083B141F40061416041684EF2000221F4DD
:1008B00060414160616ACFF6FF72436802EB4131EB
:1008C000194301E021F400614160C16A40F2000C6B
:1008D00021F47001C162E2696169CFF6F07CC36AFC
:1008E0000CEB02521A43C262826822F400728260E8
:1008F00094F83020836843EA42228260826822F4BE
:1009000080628260826842EA8121816000206064A6
:10091000216C012262F301012164002184F83C1062
:1009200010BD000080B586B042F200010068C4F23C
:100930000101002288420592049201D006B080BDD8
:1009400043F630000092C4F20200436943F480731E
:100950004361436903F480730093009B0092036832
:1009600043F001030360006800F00100009000986C
:10097000012001900320CDE9020201F5604001A9A8
:1009800000F002F806B080BD2DE9F04F82B000F112
:100990003E4707F1FF77860546EA972741F20006B2
:1009A000C4F20206072243F6004EB04208BF0422FA
:1009B000C4F2010E042F38BF3A46002600274FF03C
:1009C0000008009209E000BF08F101080237B8F101
:1009D000100F06F1040600F0A3800D68012202FA50
:1009E00008F415EA0409EFD0D1F804B003220BF0A3
:1009F000030CACF10105BA40012D6FEA020A0FD8D1
:100A00008268CD6802EA0A02BD402A4382604268D9
:100A1000A243CBF3001404FA08F42243426005E039
:100A2000BCF1030F02D14FF0030C1EE0C2688C68CA
:100A300002EA0A02BC402243BCF1020FC26014D198
:100A40006FF0030202EA58020244D2F820C006F016
:100A50001C040F230D69A3402CEA0303A5402B437C
:100A60001362D1F804B00BF0030C02680CFA07F320
:100A700002EA0A021A431BF4403F0260A4D000229B
:100A800043F644030192C4F202031A684FF6084C7D
:100A900042F480421A601A68CFF6FF7C02F480426A
:100AA0000192019A28F00302724452F80C3006F0C9
:100AB0000C050F24AC40A343009C04FA05F52B431E
:100AC00042F80C30DEF808204B6842EA090543F68C
:100AD0000C4CDC0258BF22EA0905CEF80850C4F2DB
:100AE000010CDCF800209C0242EA090558BF22EA0A
:100AF0000905CCF80050DEF804209C0342EA090501
:100B000058BF22EA0905CEF80450DEF80020DB03C6
:100B100042EA090558BF22EA0905CEF8005053E71A
:100B200002B0BDE8F08F0000002A08BF090481610F
:100B30007047000040F24810C2F2000000687047A1
:100B400040F2000040F24811C2F20000C2F200017F
:100B500000780A68104408607047000080B543F6CA
:100B60000040C4F20200016841F4007101600168B4
:100B700041F480610160016841F4807101600320EB
:100B800000F074F8002000F005F800F027F80020CD
:100B900080BD000070B540F20006C2F2000640F2CF
:100BA00008013278C2F200014FF47A730968B3FB8E
:100BB000F2F20446B1FBF2F1084600F04FFB0F2CB5
:100BC0004FF0010508D838B94FF0FF302146002218
:100BD000002500F01FF87460284670BD82B0002028
:100BE00043F640010190C4F202014A6842F4804297
:100BF0004A604A6802F480420192019A00900868B3
:100C000040F080500860086800F080500090009824
:100C100002B0704710B54EF60C5CCEF2000CDCF85A
:100C20000030C3F3022E8EF00704042C28BF0424E6
:100C3000BEF103034FF0FF3E0EFA04F438BF002369
:100C4000A14399400EFA03F39A43114300F00F02B7
:100C500000F160430901043A03F56443624400284B
:100C600048BF02F10C03197010BD00004EF60C5184
:100C7000CEF200010A684FF6FF031A4060F30A2221
:100C800042F0806040F0FD7008607047002804BFAB
:100C9000012070472DE9F04143F60808C4F202082C
:100CA0000446D8F8F8030D4600F00700884207D242
:100CB00088F8F853D8F8F80300F00700A84277D175
:100CC0002068810717D5410705D5D8F8001041F4F1
:100CD000E051C8F80010010705D5D8F8001041F41C
:100CE0006041C8F80010D8F80010A26821F0F001A7
:100CF0001143C8F80010C00740D1D8F8F80300F03D
:100D00000700A84207D988F8F853D8F8F80300F08C
:100D10000700A8424CD12068410707D5D8F8001039
:100D2000E26821F4E0511143C8F80010000708D52B
:100D3000D8F80000216920F4604040EAC100C8F8FA
:100D4000000000F07DF8D8F8001042F24642C1F3EE
:100D50000311C0F60002515C40F2080220FA01F1D2
:100D600040F20400C2F200000068C2F2000211600A
:100D7000FFF710FF0020BDE8F08100BF6068811E12
:100D8000022907D258F8081C89015CBF0120BDE880
:100D9000F08111E0012807D158F8081C89035CBFD5
:100DA0000120BDE8F08107E058F8081C890703D44A
:100DB0000120BDE8F08100BFD8F8001021F0030148
:100DC0000843C8F80000FFF7B5FE064641F2883731
:100DD000D8F80000616800F00C00B0EB810F8CD0F7
:100DE000FFF7A8FE801BB842F2D90320BDE8F081CE
:100DF00040F2080043F60801C2F20000C4F202010A
:100E00000068096842F25642C1F38221C0F600022E
:100E1000515CC8407047000040F2080043F60801EA
:100E2000C2F20000C4F202010068096842F25642B0
:100E3000C1F34231C0F60002515CC8407047000067
:100E400010B543F60404C4F20204606800F00C011B
:100E500042F200400829C0F2F40007D0042918BF6C
:100E600010BD41F20020C0F27A0010BD216801F0EF
:100E70003F02216823684902C3F3881106D4A1FB0D
:100E800000010023FFF710FA07E000BF41F2002045
:100E9000C0F27A004843B0FBF2F021680222C1F3AD
:100EA000014102EB4101B0FBF1F010BD002804BF8D
:100EB000012070472DE9F04182B00446007843F6E6
:100EC0000006C007C4F202060CD0B06800F00C00A7
:100ED000042840F081803068800303D560680028D2
:100EE00000F06A81207880071BD5B06810F00C0FE5
:100EF00009D0B06800F00C00082840F087807068C6
:100F0000400200F183803068800703D5E068012843
:100F100040F052813068216920F0F80040EAC100B9
:100F200030602078000713D4207840072AD4A569C0
:100F3000002D00F03C81B06800F00C00082840F063
:100F4000A180012D40F01081012002B0BDE8F081A8
:100F50006069002840F20000C4F2472000F07E8063
:100F60000121C0F8801EFFF7E5FD0546706F800780
:100F7000DAD4FFF7DFFD401B0228F7D9032002B0C7
:100F8000BDE8F081306C5FEAC0080AD4002001900F
:100F9000306C40F080503064306C00F08050019034
:100FA000019847F20007C4F200073868C00547D42B
:100FB000386840F480703860FFF7BCFD054600BF1C
:100FC0003868C0053CD4FFF7B5FD401B0228F7D9AF
:100FD000032002B0BDE8F081B06800F00C000828E2
:100FE00003D1706840023FF576AF6068B0F5803F8E
:100FF00007D0B0F5A02F40F09B80306840F48020EF
:101000003060306840F4803030609BE0E068002859
:101010005CD00020C4F2472001210160FFF78AFD67
:10102000054600BF306880073FF574AFFFF782FDCB
:10103000401B0228F6D9032002B0BDE8F08100BFB2
:10104000A068012805D0052854D1306F40F0040075
:101050003067306F40F00100306755E00021C0F884
:10106000801EFFF767FD0546706F80077FF55CAF58
:10107000FFF760FD401B0228F6D9032002B0BDE84F
:10108000F08100BF0027C4F2472700203866FFF731
:1010900051FD022D05460DD13068800140F1908050
:1010A000FFF748FD401B02284FF00300F4D902B0BF
:1010B000BDE8F0813068800179D5FFF73BFD401B2A
:1010C00002284FF00300F5D9F1E700BF0020C4F279
:1010D000472000210160FFF72DFD0546306880079D
:1010E0007FF51FAFFFF726FD401B02284FF00300DE
:1010F000F4D9DCE7316F002821F001013167316F4D
:1011000021F0040131677DD0FFF714FD054641F25F
:10111000883700BF306F800700F18680FFF70AFD37
:10112000401BB842F6D9032002B0BDE8F08100BFF1
:101130003168002821F480313160316821F4802148
:1011400031607BD0FFF7F6FC054600BF30688003B6
:101150003FF5C8AEFFF7EEFC401B6428F6D903202C
:1011600002B0BDE8F08100BF7068E16900F4800260
:101170008A4221D1216A00F03F028A421CD147F6FF
:10118000C071626A0140B1EB821F15D1A16A4FF6AE
:10119000FF73C903994300F44032A1F580318A42BC
:1011A0000AD1E16A00F07060B0EB016F04D1002059
:1011B00002B0BDE8F08100BF012002B0BDE8F081BF
:1011C00004F11C052FCD084340EA8210D9034FF6E5
:1011D000FF729143A1F5803140EA056008437060D9
:1011E00001203866FFF7A6FC044600BF3068800186
:1011F000DDD4FFF79FFC001B02284FF00300F5D958
:1012000055E700BFFFF796FC054641F2883700BF5F
:10121000306F800708D5FFF78DFC401BB8424FF0B8
:101220000300F5D943E700BFB8F1000F3FF57FAEEB
:10123000306C20F08050306479E600BFFFF77AFC14
:10124000054600BF306880037FF54CAEFFF772FCA7
:10125000401B64284FF00300F4D928E7411E00200A
:10126000B0EB116F1CBF012070474EF21002CEF29E
:10127000000251604EF62351CEF20001F0230B70B4
:10128000072190601160704790F83C20012A4FF0D0
:10129000020241D010B580F83D200268D2F804E087
:1012A000D2F808C00C682EF07003234340F6FF34D8
:1012B000C4F20004A242536010DCB2F1804F1ED091
:1012C00040F20043C4F200039A4218D040F60003F3
:1012D000C4F200039A4212D016E000BF40F6004369
:1012E000C4F200039A420AD044F20003C4F201039C
:1012F0009A4204D00023C4F201039A4204D14968FF
:101300002CF08003194391600121002280F83D10E8
:1013100080F83C20BDE8104010467047002804BF0C
:101320000120704710B5044690F83D0028B9002010
:1013300084F83C00204600F01FF8022084F83D00AD
:101340002068211D00F068FD012084F8460084F823
:101350003E0084F83F0084F8400084F8410084F89F
:10136000420084F8430084F8440084F8450084F87F
:101370003D00002010BD0000006840F20041C4F2B2
:101380000001884218BF704781B00020009043F6EA
:101390004000C4F20200016841F0020101600068EF
:1013A00000F002000090009801B0704790F83C20D7
:1013B000012A4FF0020200F0C58080B580F83D2080
:1013C000D0F800C04FF67772DCF8083023EA02024A
:1013D000CCF808200B684F2B28DC1F2B44DD202B7A
:1013E00045D0302B43D0402B40F0AE80D1F804E004
:1013F000C968DCF82030DCF8202022F00102CCF8AB
:101400002020DCF8182022F0F00242EA011123F03B
:101410000A0242EA0E02CCF81810CCF82020DCF8C0
:10142000081041F0470121F0300180E06F2B27DDEB
:10143000B3F5005F48D0B3F5805F7AD0702B40F0F1
:101440008380D1E901E3C968DCF8082043EA0E0390
:1014500022F47F4243EA01211143CCF80810DCF862
:10146000081041F0770162E00BB1102B6CD1DCF871
:10147000081021F07001194341F0070157E000BF47
:10148000502B35D0602B5FD1D1F804E0C968DCF86F
:101490002030DCF8202022F01002CCF82020DCF8EC
:1014A000182022F4704242EA013123F0A00242EAFD
:1014B0000E12CCF81810CCF82020DCF8081041F0FF
:1014C000670121F0100132E0D1E901E3C968DCF8DD
:1014D000082043EA0E0322F47F4243EA012111432C
:1014E000CCF80810DCF8081041F480411FE000BF80
:1014F000D1F804E0C968DCF82030DCF8202022F0C4
:101500000102CCF82020DCF8182022F0F00242EA98
:10151000011123F00A0242EA0E02CCF81810CCF8AE
:101520002020DCF8081041F0570121F02001CCF810
:1015300008100022012180F83D10002180F83C10A5
:10154000BDE88040104670470122F3E7016840F291
:101550000040C4F20000814218BF704780B586B0D9
:10156000002143F630020191C4F20202136800F533
:10157000003043F002031360126802F0020201928D
:10158000019A102201920222CDE90221CDE9041232
:1015900001A9FFF7F9F906B0BDE8804070470000E7
:1015A00090F83C30012B04BF022070474FEAB20292
:1015B000032A3BD82DE9F043DFE802F0023E7AB47B
:1015C000036800261D6A1A6AC4F2010622F00102AD
:1015D0001A621A465C6852F818CFB3428E68D1F886
:1015E00000E025F0020545EA06050CD1CE68D1E9F8
:1015F000057824F4407425F00C0526F004063C43DD
:10160000354344EA08042CF0730747EA0E075C6090
:101610009F614F6809695F631D629F6947F0080712
:101620009F619F6927F004079F61AAE001210022C2
:1016300080F83C2008467047036800261D6A1A6A35
:10164000C4F2010622F010021A621A46D3F804C04E
:1016500052F8184FB3428E68D1F800E025F020050B
:1016600045EA06150FD1CE68D1E905986FF040071D
:1016700025F0C00507EA061635432CF4406748EA12
:10168000090647EA860C24F4E64444EA0E27C3F828
:1016900004C09F614F6809699F631D629F6947F499
:1016A00000679F619F6927F480679F6168E000BFC2
:1016B000036800261D6A1A6AC4F2010622F48072C9
:1016C0001A621A46D3F804C052F81CEFB3428E686F
:1016D0000C6825F4007545EA06250FD1CE68D1E9DE
:1016E0000598360240F2FF4725F44065BE43354376
:1016F0002CF4405748EA090647EA061C2EF0730707
:101700002743C3F804C0DF614F680969DF631D62C6
:10171000DF6947F00807DF61DF6927F00407DF6151
:101720002FE000BF03680027D3F820C01A6AC4F274
:10173000010722F480521A621A465C6852F81C5F54
:10174000D1F800E08E68BB4204D14F6924F4804494
:1017500044EA87142CF4005747EA063725F4E64696
:1017600046EA0E265C60DE614E6809691E641F62EF
:10177000DF6947F40067DF61DF6927F48067DF61B5
:1017800009021368194311600021BDE8F0430022EB
:1017900080F83C2008467047002804BF01207047AD
:1017A00010B5044690F83D0028B9002084F83C00AC
:1017B000204600F01FF8022084F83D002068211D1B
:1017C00000F02AFB012084F8460084F83E0084F8EB
:1017D0003F0084F8400084F8410084F8420084F817
:1017E000430084F8440084F8450084F83D0000205C
:1017F00010BD00007047000041B1082910D0042935
:1018000014BF00F1410200F13F020BE090F83E20CE
:10181000012A1CBF01207047022280F83E2013E0FD
:1018200000F140021278012A1CBF012070470222F9
:10183000082907D0042914BF80F8412080F83F20F0
:1018400002E000BF80F84020006801F01F01012283
:10185000036A8A4023EA02010162036A4421C4F256
:1018600001011A43A1F144039842026216D040F6E6
:10187000FF31C4F2000188421ADCB0F1804F28D059
:1018800040F20041C4F20001884222D040F600013B
:10189000C4F2000188421CD020E000BF0A6842F474
:1018A00000420A6040F6FF31C4F200018842E4DDE4
:1018B00040F60041C4F2000188420AD044F200011F
:1018C000C4F20101884204D00021C4F2010188421F
:1018D00004D1816801F00701062903D0016841F0B5
:1018E0000101016000207047002804BF01207047FB
:1018F00010B5044690F8410028B9002084F8400053
:10190000204600F021F8242084F841002068C168B6
:1019100021F40051C160204600F0FAFA2068016904
:1019200021F490410161416921F02A014161C168BE
:1019300041F40051C16000202021606484F841100E
:1019400084F84210606310BD016844F20040C4F2A4
:101950000000814218BF704780B586B0002143F671
:1019600030020191C4F20202136900F5DE3043F443
:1019700000331361136903F400330193019B019158
:10198000136843F001031360126802F00102019230
:10199000019A0C2201920222CDE902210491072131
:1019A000059101A9FEF7F0FF06B0BDE88040704741
:1019B0002DE9F04381B0044690F84200202825D15B
:1019C000884600294FF0010000F0FA801746002AEF
:1019D00000F0F680002022211D46606484F8421049
:1019E0002063FFF7A7F8A785E785A1680746B1F54B
:1019F000805F02D12069002854D046464FF000088D
:101A0000E08D002852D005F101090FE0022001B05D
:101A1000BDE8F083406800266FF35F2028F8020BD2
:101A2000E08D0138E085E08D00283FD02068016816
:101A3000890617D4B9F1000F22D0002D00F0C48020
:101A4000FFF778F8C01BA84200F2B6802068C16892
:101A5000490744BF01685FEA017129D4016889061A
:101A6000EED500BF002ED5D0A168B1F5805F15D0AE
:101A700009B9216991B1406800F07F000FE000BF13
:101A800001688906EED4016889065CBF01685FEAD7
:101A90008161E7D401688906F2D5E3E7406806F87A
:101AA000010BBDE70026E08D0028ACD1002084E0CA
:101AB000002100910168009140680090009800BFEB
:101AC000206850E8030F216820F4907041E8030279
:101AD000BAB3206850E8030F216820F4907041E801
:101AE000030272B3206850E8030F216820F490705D
:101AF00041E803022AB3206850E8030F216820F46C
:101B0000907041E80302002ADAD11AE0206850E818
:101B1000050F216820F0010041E80502DAB12068D4
:101B200050E8050F216820F0010041E8050292B15C
:101B3000206850E8050F216820F0010041E8050207
:101B40004AB1206850E8050F216820F0010041E803
:101B50000502002ADAD1206B012824D1206850E840
:101B6000030F216820F0100041E80302DAB1206879
:101B700050E8030F216820F0100041E8030292B101
:101B8000206850E8030F216820F0100041E80302AC
:101B90004AB1206850E8030F216820F0100041E8A6
:101BA0000302002ADAD1202084F842000020082114
:101BB0002063616484F840000320202184F84210EF
:101BC00001B0BDE8F08300BFFEF7B4FFF4E700000A
:101BD0002DE9F041044690F8410020281CBF022066
:101BE000BDE8F0810D4600294FF0010000F0AA8009
:101BF0001646002A08BFBDE8F0810020606421205D
:101C0000984684F84100FEF795FFA684E684A16813
:101C10000646B1F5805F02D12069002862D02F46C8
:101C20000025E08C002861D018F1010018D0B8F12F
:101C3000000F37D1216808E017F8010B4860E08CED
:101C40000138E084E08C002851D00868000673D584
:101C5000002FF1D135F8020B00276FF35F20EDE77D
:101C6000216802E00868000609D40868000606D466
:101C7000086800065CBF08685FEA0060F2D51FB123
:101C800017F8010B05E000BF35F8020B00276FF3D2
:101C90005F204860E08C0138E084E08C0028E4D1CB
:101CA00025E000BF216800BF0868000608D4FEF7E1
:101CB00041FF801B404541D82168C868F4E700BF58
:101CC00017B117F8010B04E035F8020B00276FF38A
:101CD0005F204860E08C0138E084E08C0028E3D18C
:101CE00005E000BF0027E08C00289DD1216808682E
:101CF00040061FD4B8F1000F1ED018F101000FD11B
:101D00000868400616D40868400613D408684006E0
:101D100010D4086840064FF00000F1D50FE000BF76
:101D2000FEF708FF801B404508D82068C16800689E
:101D30004006F5D5002002E0FEF7FCFE032020213E
:101D400084F84110BDE8F081FEE70000FEE70000E6
:101D5000FEE700007047000070470000FEF7F0BE8D
:101D6000B0B592B0002443F640000B94CDE909448D
:101D7000CDE907440594CDE90344CDE9014400943D
:101D8000C4F202000168022541F080510160006840
:101D900000F080500090009847F200000094C4F2D8
:101DA0000000016865F38F310160006800F4404075
:101DB000009000980120099010200A900E904FF496
:101DC000A8700F90042010900720119006A8069587
:101DD000CDE90C54FFF76AF810B172B6FEE700BF08
:101DE0000F20CDE901054FF48050CDE9040401A88E
:101DF00002210394FEF74AFF10B172B6FEE700BF5E
:101E000012B0B0BD4EF68850CEF20000016841F429
:101E10007001016070470000B0B540F2FF7E0568B8
:101E2000C4F2000E40F2000C7045C4F2010C1DDD3E
:101E300040F60003C4F20003984220D060451ED053
:101E400040F60043C4F20003984218D04FF6FF73E7
:101E5000C4F2000398421DDC704527DCB0F1804FCE
:101E60003CD040F20043C4F2000335E0B0F1804FB3
:101E700005D040F20043C4F200039842E6D14B681B
:101E800025F0700243EA02054FF6FF73C4F2000327
:101E90009842E1DD44F2FF33C4F20103984211DCC1
:101EA00060451BD044F2000314E000BF40F600037D
:101EB000C4F20003984211D040F60043C4F200037C
:101EC0000AE000BF44F60003C4F20103984205D0C3
:101ED00044F20043C4F20103984204D1CB6825F4D4
:101EE000407243EA02050A688C684B696045C46227
:101EF000826202D10969CCF83010026825F08001B5
:101F000042F0040219430260012242610160B0BD47
:101F100010B504460068D4E902C22369016921F4BE
:101F2000405111430161626943EA0C01E3691143C5
:101F3000C268194349F20C639A431143C160416975
:101F4000A26921F4407141F20043114340F48062E0
:101F5000C4F201039A42416102D1FEF75DFF01E044
:101F6000FEF746FFE16963681922B1F5004FA0FB57
:101F7000020123D15A00DB0FFEF796F948F21F51F8
:101F8000C5F2EB11A0FB01235A094FF69C73C0F672
:101F9000FF7303F1805302FB0300322303EBC00005
:101FA000A0FB01014FF4F87000EA111000EB0210E1
:101FB000C1F3421108442168886010BD9A009B0F4C
:101FC000FEF772F948F21F51C5F2EB11A0FB012395
:101FD0005A094FF69C73C0F6FF7302FB03003223CD
:101FE00003EB0010A0FB0101F02000EA511000EB10
:101FF0000210C1F3431108442168886010BD00003D
:10200000FEE70000A6B00025C4F20205FEF7A6FD1B
:10201000FFF7A6FE002643F63000CDE910661D96B8
:10202000C4F202000168002241F00401016001686D
:10203000202701F004011D911D991D96016841F0B2
:1020400080010160016801F080011D911D991D96BC
:10205000016841F001010160016801F001011D9179
:102060001D991D96016841F0020101600068202160
:1020700000F002001D901D982846FEF755FD4FF414
:1020800000500D904FF404100DACCDE90E0605F58F
:1020900000602146FEF778FC0D970127284621466F
:1020A000CDE90E761096FEF76FFC40F2700001232A
:1020B000A5F56041C2F20000C0F6007310964FF41F
:1020C0008032067680F82060C0E90A36C76180F861
:1020D000306080E84600C0E903664761FEF772FBA6
:1020E00010B172B6FEE700BF40F27000C2F200000D
:1020F0000DA9CDE90D670F97FEF7C0FA10B172B6C2
:10210000FEE700BF40F2B8000021A5F5FE32C2F2A2
:10211000000040F247332091CDE91E11CDE90611B0
:10212000CDE91211CDE91011C0E90021C0E9021377
:1021300001618161FFF7F2F810B172B6FEE700BFEE
:102140004FF480501D9040F2B800C2F200001DA96B
:10215000FFF72CF910B172B6FEE700BF40F2B800ED
:10216000C2F20000FFF718FB10B172B6FEE700BF25
:1021700040F2B800C2F2000006A9FFF785F818B1D6
:1021800072B600BFFEE700BF60200D90FC200E90ED
:1021900040F2B8000DAC0026C2F200002146002239
:1021A0000F961196FFF7FCF910B172B6FEE700BF6B
:1021B00040F2B800C2F20000FFF7C8F940F2001088
:1021C000A5F5DE31C2F200000C234FF4E13280E8C5
:1021D0004600C0E90366C0E90536C661FFF784FB27
:1021E00010B172B6FEE700BF40F2B800C2F20000C4
:1021F0000021FFF701FB18B172B600BFFEE700BF78
:1022000074480DF1780E1D9072A0D0E90565071D88
:102210008ECFD0E907C0CDE9226540F20016C2F2A8
:1022200000068EE88E00CDE924C01DA93046232289
:102230004FF0FF33FFF7CCFC76A0416804F10109B1
:102240000591816806AF0491C16842F6B0780391A8
:10225000016940690291019033E000BF83B24FF4FD
:10226000527045F62941642B28BF64235843C0F2BD
:102270008F21A0FB010540F2B800C2F20000006807
:102280004021456320465CA20095FEF785F882B2A6
:10229000304621464FF0FF33FFF79AFC5D48394640
:1022A000069005981422079004984FF0FF33089089
:1022B0000398099002980A9001980B903046FFF716
:1022C00087FC4FF0000ACDF834A00AE004F80B00B8
:1022D0003046394601224FF0FF330BF1010AFFF778
:1022E00077FCD34604E000BFBBF1020FEED900BF7C
:1022F0003046394601224FF0FF33FFF759FB0028E3
:10230000F6D19DF81800A0F130010929ECD90D286B
:1023100001D00A28ECD1BBF1000F4FF0000AE0D049
:1023200042F25E413046C0F6000102224FF0FF3318
:10233000FFF74EFC5FEA9B004FF0000128D0A64655
:10234000A1EB800C6FF00302002000BF09EB020339
:10235000DC7800EB80001D7904EB400000EB80008E
:10236000597905EB400000EB80009B7901EB4000C0
:1023700000EB8000043203EB40000CEB020104315F
:102380004044E3D1111D74461BF0030205D165E7FB
:1023900000201BF003023FF461AF635C00EB8000A0
:1023A00003EB4000012AA0F130003FF457AF214475
:1023B0004B7800EB800003EB4000022AA0F13000D4
:1023C0003FF44CAF897800EB800001EB40003038DF
:1023D00044E700BF0D0A53544D3332205245414467
:1023E000590D0A456E746572204475747920283041
:1023F0002D313030293A20005B73746D33325D200B
:10240000647574793A202575206363723A20256CCF
:10241000750D0A00456E7465722044757479202824
:10242000302D313030293A2000000000F1EE100A42
:102430004FF6FF71C0F2C03120EA010040F0407059
:10244000E1EE100A704700000000000000000102E9
:1024500003040607080900000000010203040D0A36
:102460000000000088240008000000201000000088
:10247000F801000898240008100000204007000020
:102480001802000800000000010000001000000019
:082490000024F400000000002C
:040000050800019559
:00000001FF
